S01C0000656C657661746F725F7465726D70726F6A6563742E7372656398
S113000086C00000A2C00000A0C000009EC0000086
S11300109CC0000035C100005FC1000096C0000014
S113002094C0000092C0000090C000008EC0000088
S11300308CC000008AC0000088C0000086C0000098
S113004084C0000082C00000FDC000007EC000002B
S113005008C100007AC0000078C0000076C000002B
S113006074C0000072C0000070C000006EC00000C8
S11300706CC000006AC000000C94C80866C0000090
S113008064C0000062C0000060C00000C807CC0764
S1130090D207D207C207D207D207D207C407D407B0
S11300A0D207D207D207D207D207D207CA07CA0794
S11300B0D207D207D207D207D207D207C607D20780
S11300C0D207D207D207D207D207D207CE07D20768
S11300D0D207D207D207D207D207D207D207D20754
S11300E0D207D207D207D207D207D207D207D20744
S11300F0D207D207D207D207D207D207D207D20734
S1130100D207D207D207D207D207D207D0071124C9
S11301101FBECFEFD0E1DEBFCDBF13E0A0E0B1E062
S1130120E8E3F8E100E00BBF02C007900D92AC35A4
S1130130B107D9F727E0ACE5B3E001C01D92AD3CAF
S1130140B207E1F76FD10C941A0C5ACFE5E6F0E050
S113015090819460908390819D7F90839081916041
S1130160908396EF9A95F1F78BBB86EF8A95F1F71A
S113017080818E7F80830895E5E6F0E090819B7F07
S1130180908390819D7F908390819160908396EF7E
S11301909A95F1F78BBB86EF8A95F1F780818E7F74
S11301A08083089520E030E007C0E6E6FEE0319762
S11301B0F1F700002F5F3F4F482F50E02417350719
S11301C0A4F30895CF93C82F81E0ECDF8C2FBEDF1A
S11301D0CF910895CF93DF93EC0102C0F3DF219612
S11301E088818111FBCFDF91CF91089590E4899F9D
S11301F0600D1124862F8068BFCF089581E0BCDF95
S113020082E0D0CF08958FEF8ABBE4E6F0E08081EE
S11302108F6080830895F7DF88E3AEDF84E0C2DF78
S113022088E3AADF84E0BEDF88E3A6DF84E0BADFE8
S11302308EE0A2DF82E0B6DF86E09EDF82E0B2DFFE
S1130240DDCF08951F920F920FB60F9211248F9352
S11302508CB1809372038F910F900FBE0F901F90FB
S113026018951F920F920FB60F9211248F938091BD
S113027072038CB98F910F900FBE0F901F90189539
S11302801F920F920FB60F9211242F938F939F9367
S11302900C991AC08EEB90E099BD88BD2FEF8FEFBB
S11302A096E8215080409040E1F700C000008AEFBA
S11302B090E099BD88BD2FEF8FEF9CE221508040E4
S11302C09040E1F700C000009F918F912F910F9013
S11302D00FBE0F901F9018951F920F920FB60F929A
S11302E011248F939F930D9904C08AEF90E09BBDD6
S11302F08ABD9F918F910F900FBE0F901F901895FC
S11303001BB888ED8AB9E5E9F0E086E08083808156
S11303108F7B8083109290008FE589B90895FAD578
S1130320882349F01DD6882349F083E793E01AD740
S113033082E090E0089580E090E0089581E090E00C
S1130340089597B1907E97B997B18F71982B97B90B
S113035086B1806486B9349BFECF24B185B190E028
S1130360982F8827822B089516B880E487B983E8EC
S113037086B9089580E389BF8FB780688FBF82E014
S113038082B908958FEF84BB15BA089520E030E058
S113039005C045E04A95F1F72F5F3F4F281739070D
S11303A0C0F30895CF92DF92EF92FF920F931F93C1
S11303B0CF93DF936C019C01990F440B550B60E5BF
S11303C073EC80E090E036D7790100E010E00EC0D5
S11303D0C5E6D0E0888180618883C601D7DF888143
S11303E08F7E8883C601D2DF0F5F1F4F0E151F0556
S11303F07CF3E5E6F0E0808180618083DF91CF913A
S11304001F910F91FF90EF90DF90CF900895E4E655
S1130410F0E0808180618083E5E6F0E080818061A6
S113042080830895CF93DF93CDB7DEB7A8970FB637
S1130430F894DEBF0FBECDBFFE01319688E2DF0126
S11304401D928A95E9F790DFF1D0E5DE9BDFDFDFCF
S11304500FD2E8D555DF8EDF8AEF90E09BBD8ABDD1
S113046099BD88BD7894D7DE60E080E0BFDE81E08E
S113047091E0B0DE87B3806687BB88B3806688BBB3
S113048082EA8FBD8BE18EBD87E893E197BD86BD7F
S1130490BFEF2FEF8CE2B15020408040E1F700C065
S11304A000003DDF7C0181E04CDF80935C0390938E
S11304B05D039F938F938CE091E09F938F938E01C4
S11304C00F5F1F4F1F930F93DAD660E081E08EDE3B
S11304D0C80180DE80915C0390915D030F900F90C2
S11304E00F900F900F900F908C3291401CF08FEF73
S11304F085BB01C015BAB2E0EB16F10409F054C093
S1130500809174038C3829F58AE491E09BBD8ABDFF
S113051060E080E06BDE88E191E05CDE8EEB90E0F1
S113052099BD88BD2FEF8FEF96E821508040904011
S1130530E1F700C000008AEF90E099BD88BDAFEFFD
S1130540BFEF2CE2A150B0402040E1F700C0000012
S113055031C0833229F580E991E09BBD8ABD60E01A
S113056080E044DE8DE291E035DE8EEB90E099BDD3
S113057088BD8FEF9FEFA6E881509040A040E1F73F
S113058000C000008AEF90E099BD88BDBFEF2FEF57
S11305908CE2B15020408040E1F700C000000AC066
S11305A08BEF94E0FFDE06C060E081E01FDE80E4B4
S11305B091E010DE80917203813371F460E080E099
S11305C015DE86E491E006DE8AEF90E09BBD8ABDED
S11305D080E3809372034ECF823371F460E080E055
S11305E005DE8FE591E0F6DD8AE491E09BBD8ABDEE
S11305F080E3809372033ECF833371F460E080E044
S1130600F5DD86E791E0E6DD80E991E09BBD8ABDFA
S113061080E3809372032ECF80E38093720360E0C3
S113062080E0E4DD81E591E0D5DD24CF8EE087BB79
S113063087B3877F87BB80E58DB91EB808958FB9CE
S1130640779BFECF8FB10895CF93C62F98B39E7F2B
S113065098BBF5DF8C2FF3DF88B3816088BBCF9123
S113066008950F931F93CF93DF93D62F8A0198B3E6
S11306709E7F98BBE4DFC0E006C0F801EC0FF11DDB
S11306808081DDDFCF5FCD17C0F388B3816088BB85
S1130690DF91CF911F910F91089598B39E7F98BBDE
S11306A08068CDDF80E0CBDF98B3916098BB08957C
S11306B0CF92DF92EF92FF920F931F93CF93DF932A
S11306C0662309F43CC0D22F6A01082F006888B35E
S11306D08E7F88BB1FEF160F802FB1DFDD23B9F0AB
S11306E08FEF90E09C0102C0220F331FDA95E2F7EE
S11306F0E901802FA4DFF60190812C2F209592230D
S11307008C23892BF6018083C1E0D0E00BC0C0E0CC
S1130710D0E008C07601EC0EFD1E802F90DFF701BB
S113072080832196212F30E0C217D3079CF3CC0D90
S1130730DD1D80E084DF888388B3816088BBDF911E
S1130740CF911F910F91FF90EF90DF90CF9008957C
S1130750CF93DF93D82FC62FA0DF682F6C2B8D2F5C
S113076073DFDF91CF910895CF93DF93D82FC62FF6
S113077094DFC0956C2F68238D2F66DFDF91CF91B6
S11307800895EF92FF920F931F93CF93DF937C0111
S1130790C62F8A0160E082E057DF64E08AE054DF1C
S11307A060E884E151DFA7016C2F82E15ADF63E046
S11307B082E04ADFC0E0D0E08AE06FDF82FF0DC054
S11307C060E082E041DF84E468DFF801808382E452
S11307D064DFF801818380E00AC086E69EE0019729
S11307E0F1F700002196CA35D10534F383E0DF9197
S11307F0CF911F910F91FF90EF90089588E24DDF04
S1130800982F9370933021F0682F636088E21CCF97
S1130810089587B3816087BB88B3816088BB84B344
S1130820816084BB85B38E7F85BB8AE08A95F1F7AE
S113083085B3816085BB60E084E206DF60E086E228
S113084003DF66E288E400DF60E884E5FDDE69EA50
S113085086E5FADE63E088E5F7DE68EE8AE5F4DE35
S113086060E48AE2F1DE6DE382E2EEDEC7CF089552
S113087085B3816085BB88B3816088BB84B38160A4
S113088084BB87B3816087BB84B38E7F84BB80E7DE
S113089091E00197F1F700C084B3816084BB9FEFBE
S11308A02FE784E0915020408040E1F700C0000031
S11308B0B0CF08954F925F926F927F928F929F92E2
S11308C0AF92BF92CF92DF92EF92FF920F931F935A
S11308D0CF93DF9300D0CDB7DEB7982EB62E2A0182
S11308E0722EC114D10419F0F601608001C0612C8C
S11308F0F0E1AF9E600C112460E082E0A5DE6FE7BA
S113090088E0A2DE60E884E19FDEA201672D82E137
S1130910A8DE662D8AE198DE692D82E095DE8CE002
S1130920981203C060E88AE113DF412C512C88E05F
S1130930B4DE982F9B2189F480FD77C09FEF491A7C
S1130940590AE0E7F1E03197F1F700C0F0E94F16FA
S1130950F1E05F0664F380E001C081E0882309F4DC
S113096066C08CE09ADEB82E837109F062C001156E
S11309701105C9F0E114F104C1F084E18EDEF70140
S11309809081981708F457C080832A2DA801682FF6
S113099082E18EDE88E181DE8770C114D10431F0FA
S11309A0F601808303C080E001C080E0B3FC45C051
S11309B00115110509F443C0E114F10409F441C01F
S11309C0882009F440C0F7019081913011F48430FB
S11309D011F1923010F1811122C06EEF690FAE0156
S11309E04F5F5F4FC801CDDE81112EC0F7018081BA
S11309F090E0F801E80FF91F329730812981321312
S1130A0010C0800F911FFC01319790818A81981347
S1130A100AC080E019C08FEF17C087E015C087E0D7
S1130A2013C087E011C087E00FC083E00DC083E0EE
S1130A300BC081E009C084E007C082E005C080E00B
S1130A4003C080E001C080E00F900F90DF91CF9150
S1130A501F910F91FF90EF90DF90CF90BF90AF90D8
S1130A609F908F907F906F905F904F9008958F929A
S1130A70AF92CF92DF92EF92FF920F931F938C2C41
S1130A80AE2C680179018A01262FAC0160E38CE069
S1130A9011DF1F910F91FF90EF90DF90CF90AF90F7
S1130AA08F9008958F929F92AF92BF92CF92EF92C0
S1130AB00F931F93CF93DF9300D0CDB7DEB78A8314
S1130AC06115710509F1FA0180818230F8F04A015B
S1130AD05B0160E88CE148DE87E08983C12CE12C6E
S1130AE08E010F5F1F4F9401A50161E0CE010296B4
S1130AF0BEDF811110C0F4018081823049F4898104
S1130B00882341F081E007C084E005C084E003C08D
S1130B1081E001C080E00F900F90DF91CF911F9191
S1130B200F91EF90CF90BF90AF909F908F900895CA
S1130B30AB01BC0186E2B6CF08953F924F925F921B
S1130B406F927F928F929F92AF92BF92CF92DF92D9
S1130B50EF92FF920F931F93CF93DF93CDB7DEB73E
S1130B602B970FB6F894DEBF0FBECDBF613508F0EA
S1130B7076C1762E4C0160E88CE1F6DD5524539461
S1130B80412C62C132E05316A9F063E0561621F1FC
S1130B9071E0571266C183E98983772031F0F4014B
S1130BA08081853020F440E003C040E001C041E092
S1130BB0612C19C085E98983772031F0F4018081A3
S1130BC0883020F440E003C040E001C041E00F2E33
S1130BD0F3E06F2EF02D07C087E989830F2EF6E02E
S1130BE06F2EF02D40E0862D880F880F880FF72C8C
S1130BF0F81A0AF4F12C442321F088E88B8393E05B
S1130C0001C092E05F2D21E08F2D877009F420E070
S1130C108F2DFF2014F487E08F0D8595859585959C
S1130C20820FE1F0442311F033E001C034E03817BF
S1130C3008F0382F80E010C0E82FF0E0E60DF11D39
S1130C40E80DF91D2181E1E0F0E0EC0FFD1FE90F53
S1130C50F11D20838F5F9F5F831770F3442321F07E
S1130C606894FF24F3F8F50ED12CACC0FFE1FF1516
S1130C70FCF480E78A833B818C812D819E818327CC
S1130C80822789278F83AE01485F5F4F67E0CE01DB
S1130C90019677DD8111F2C01A8683E08B875E01AD
S1130CA037E0A30EB11C0F2EF9E03F2EF02D27C024
S1130CB08F2D87781CF48150886F8F5F282F8A8747
S1130CC09F2DFF2014F497E09F0D9595959595958C
S1130CD09E5F822F60E1969F800D11248A8381E0BC
S1130CE0211101C080E0392E380EAA24A394B12C1E
S1130CF0AC0EBD1EA90EB11C89E0891B8B87EA844A
S1130D006E2D6295607F6E0D8AE19EDCC12C8E0192
S1130D10065F1F4F9E01255F3F4FA501632DCE0146
S1130D200196A5DE823009F042C08CE1B6DC85FD77
S1130D309AC08F7109F480E2282F30E04F2DFF0C08
S1130D40550B421753070CF090C0F82E8778022EEB
S1130D50000C330B2150310927703078332334F4DD
S1130D6021503109286F3F6F2F5F3F4F91E0811170
S1130D7001C090E08F2DFF2014F487E08F0D85953E
S1130D8085958595980F9F5F41E050E0FA0102C078
S1130D90EE0FFF1F2A95E2F79F01E1E0F0E0EC0F70
S1130DA0FD1FE90FF11D8081282B20830BC08111C9
S1130DB065C0FFE1FF151CF4DD24D39403C06894DF
S1130DC0FF24F5F8DD2009F451CF8B81883811F424
S1130DD093E001C092E0883811F433E001C034E0BC
S1130DE080E010C0E82FF0E0E60DF11DA1E0B0E0D6
S1130DF0AC0FBD1FA90FB11D2C91E80DF91D218366
S1130E008F5F9F5F831770F38B85833081F58A85AD
S1130E1081112FC0AE014D5F5F4F61E0C501B1DCB0
S1130E2081112CC09B81F5018181981324C09C8180
S1130E308281981322C0808182FF02C0539404C02F
S1130E40F401838744244394442009F49BCE852DE4
S1130E50880F850D8F5FF401808380E00FC086E0EA
S1130E600DC085E00BC082E009C085E007C081E0C9
S1130E7005C081E003C087E001C087E02B960FB670
S1130E80F894DEBF0FBECDBFDF91CF911F910F91BC
S1130E90FF90EF90DF90CF90BF90AF909F908F9096
S1130EA07F906F905F904F903F900895CF92EF9214
S1130EB00F931F93CF93DF9300D000D0CDB7DEB74D
S1130EC080E589831A82AE014D5F5F4F62E0CE01F7
S1130ED0019657DC811113C0C12CE12C00E010E015
S1130EE020E030E040E050E064E0CE010196BFDD58
S1130EF0833021F0811103C081E001C080E00F90B4
S1130F000F900F900F90DF91CF911F910F91EF9061
S1130F10CF900895CF93DF9300D01F92CDB7DEB763
S1130F2082E08B8360E084E28FDB60E086E28CDB2E
S1130F3066E288E489DBBE016D5F7F4FCE010196D6
S1130F40F7DD882321F0823021F481E003C081E0C1
S1130F5001C080E00F900F900F90DF91CF91089522
S1130F6060E083E793E0E9DD91E0811190E0892F6F
S1130F7008958F7790E081349105A0F4FC01EA5B39
S1130F80FF4F74C18FEF089584E0089585E00895BC
S1130F9086E0089587E0089589E0089581E0089542
S1130FA082E0089580E0089583E00895853011F18A
S1130FB058F48230A1F118F4813099F02DC08330B7
S1130FC099F08430A1F028C08830E9F028F4863004
S1130FD0A1F08730A9F020C08930C1F08F3FC9F05B
S1130FE01BC08DE891E0089589ED91E0089580EFAC
S1130FF091E008958BEF91E0089586E092E00895E2
S113100088E292E0089584E392E0089583E492E014
S1131010089582E592E0089585E792E0089581EBD2
S113102091E00895CF938EE638DBC82F82E892E0F2
S1131030A3D01F92CF9387E393E09F938F9385EE82
S113104093E09F938F931BD185EE93E095D00F90FF
S11310500F900F900F900F900F90C03979F028F4F3
S1131060C231C1F0C83831F019C0C13959F0C239A0
S113107069F014C087E992E07FD013C084EA92E05B
S11310807BD00FC08EEA92E077D00BC088EB92E061
S113109073D007C082EC92E06FD003C088ED92E079
S11310A06BD08FEF8C0F8E3F18F087EE92E064D0F8
S11310B08C2FCF9108950F931F93CF938C018CE2C3
S11310C093E05AD0C0E019C0F801EC0FF11D818102
S11310D01F928F9386E393E09F938F9385EE93E023
S11310E09F938F93CCD085EE93E046D0CF5F0F9043
S11310F00F900F900F900F900F90F8018081C817F8
S113110018F381EA92E038D08CE393E035D0F8010B
S11311108385803118F487E493E02ED0F801838529
S11311201F928F9389E493E09F938F9385EE93E0CE
S11311309F938F93A4D085EE93E01ED0F80183850E
S113114018DFC82F80E593E017D08C2F2FDF14D041
S11311500F900F900F900F900F900F90CF911F91C1
S11311600F910895A8DFA2CE089590919B0095FF5A
S1131170FCCF80939C000895CF93DF93EC0102C0D1
S1131180F4DF219688818111FBCFDF91CF910895FF
S11311901F920F920FB60F9211240BB60F928F93DA
S11311A09F93EF93FF9380917F03E82FF0E090915A
S11311B09C00E058FC4F90838F5F80937F038530C1
S11311C028F0909184039A5F90930001909100011C
S11311D0891303C081E08093E403FF91EF919F9111
S11311E08F910F900BBE0F900FBE0F901F9018950C
S11311F0A1E21A2EAA1BBB1BFD010DC0AA1FBB1F17
S1131200EE1FFF1FA217B307E407F50720F0A21B88
S1131210B30BE40BF50B661F771F881F991F1A94F5
S113122069F760957095809590959B01AC01BD011F
S1131230CF010895052E97FB16F400940FD057FDA7
S113124005D0D6DF07FC02D046F408C0509540957F
S1131250309521953F4F4F4F5F4F0895909580955E
S1131260709561957F4F8F4F9F4F0895EE0FFF1F2D
S11312700024001C0BBE0790F691E02D09940F93F7
S11312801F93CF93DF93CDB7DEB72E970FB6F894A5
S1131290DEBF0FBECDBF0D891E8986E08C831A8305
S11312A009838FEF9FE79E838D83AE01475E5F4F77
S11312B06F89788DCE01019610D0EF81F885E00F0B
S11312C0F11F10822E960FB6F894DEBF0FBECDBF6D
S11312D0DF91CF911F910F9108952F923F924F92DA
S11312E05F926F927F928F929F92AF92BF92CF92B2
S11312F0DF92EF92FF920F931F93CF93DF93CDB7BB
S1131300DEB72B970FB6F894DEBF0FBECDBF6C01CE
S11313107B018A01FC0117821682838181FFBFC190
S1131320CE0101963C01F6019381F70193FD85916D
S113133093FF81917F01882309F4ADC1853239F48B
S113134093FD859193FF81917F01853221F4B6014C
S113135090E0D6D1E8CF912C212C312CFFE1F3156C
S1131360D8F08B3279F038F4803279F08332A1F4FA
S1131370232D20611DC08D3261F0803369F4232D4B
S1131380216016C0832D8260382EE32DE4603E2E4A
S11313902AC0F32DF8601DC037FC2DC020ED280FA6
S11313A02A3040F08E32B9F436FC75C1232D206406
S11313B0322E19C036FE06C08AE0989E200D1124F4
S11313C0922E11C0EAE02E9E200D1124222EF32D20
S11313D0F0623F2E08C08C3621F4832D8068382EAD
S11313E002C0883641F4F70193FD859193FF819102
S11313F07F018111B3CF982F9F7D9554933028F4AA
S11314000C5F1F4F9FE399830DC0833631F0833700
S113141071F0833509F055C020C0F80180818983BB
S11314200E5F1F4F88248394912C530112C028010E
S1131430F2E04F0E511CF801A080B18036FE03C0CB
S1131440692D70E002C06FEF7FEFC5014ED14C01F2
S11314508201F32DFF773F2E15C0280122E0420EB2
S1131460511CF801A080B18036FE03C0692D70E0E4
S113147002C06FEF7FEFC5012DD14C01F32DF06851
S11314803F2E820133FC19C0822D90E08816990604
S1131490A0F4B60180E290E033D12A94F5CFF501AF
S11314A037FC859137FE81915F01B60190E028D128
S11314B021102A9421E0821A91088114910479F769
S11314C0E1C0843611F0893639F5F80137FE07C0DA
S11314D060817181828193810C5F1F4F08C060819C
S11314E07181072E000C880B990B0E5F1F4FF32D93
S11314F0FF763F2E97FF09C0909580957095619572
S11315007F4F8F4F9F4FF0683F2E2AE030E0A301BA
S113151033D1882E861844C0853731F4232D2F7E8D
S1131520B22E2AE030E025C0932D997FB92E8F3654
S1131530C1F018F4883579F0AEC0803719F08837D7
S113154021F0A9C0E92FE061BE2EB4FE0DC0FB2D31
S1131550F460BF2E09C034FE0AC0292F2660B22EC3
S113156006C028E030E005C020E130E002C020E100
S113157032E0F801B7FE07C06081718182819381F6
S11315800C5F1F4F06C06081718180E090E00E5FA8
S11315901F4FA301F1D0882E8618FB2DFF773F2E15
S11315A036FE0DC0232D2E7FA22E891458F434FE4E
S11315B00BC032FC09C0832D8E7EA82E05C0B82C2A
S11315C0A32C03C0B82C01C0B92CA4FE0FC0FE018B
S11315D0E80DF11D8081803321F49A2D997EA92E86
S11315E009C0A2FE06C0B394B39404C08A2D8678C1
S11315F009F0B394A3FC10C0A0FE06C0B21480F49A
S1131600280C922C9B180DC0B21458F4B60180E239
S113161090E076D0B394F8CFB21418F42B1802C02B
S1131620982C212CA4FE0FC0B60180E390E068D072
S1131630A2FE16C0A1FC03C088E790E002C088E5C2
S113164090E0B6010CC08A2D867851F0A1FE02C04C
S11316508BE201C080E2A7FC8DE2B60190E050D09D
S1131660891430F4B60180E390E04AD09A94F8CF1C
S11316708A94F301E80DF11D8081B60190E040D019
S11316808110F6CF222009F44ECEB60180E290E01C
S113169037D02A94F7CFF6018681978102C08FEF65
S11316A09FEF2B960FB6F894DEBF0FBECDBFDF9130
S11316B0CF911F910F91FF90EF90DF90CF90BF904B
S11316C0AF909F908F907F906F905F904F903F90DE
S11316D02F900895FC010590615070400110D8F7D7
S11316E0809590958E0F9F1F0895FC016150704066
S11316F001900110D8F7809590958E0F9F1F089543
S11317000F931F93CF93DF93FB01238121FD03C02C
S11317108FEF9FEF2CC022FF16C046815781248192
S113172035814217530744F4A081B1819D012F5F95
S11317303F4F318320838C93268137812F5F3F4F26
S11317403783268314C08B01EC01FB010084F185EF
S1131750E02D0995892BE1F6D80116968D919C917F
S11317601797019617969C938E931697CE01DF9147
S1131770CF911F910F910895FA01AA27283051F1B2
S1131780203181F1E8946F936E7F6E5F7F4F8F4FAE
S11317909F4FAF4FB1E03ED0B4E03CD0670F781F0D
S11317A0891F9A1FA11D680F791F8A1F911DA11DF2
S11317B06A0F711D811D911DA11D20D009F468942B
S11317C03F912AE0269F11243019305D3193DEF6D3
S11317D0CF010895462F4770405D4193B3E00FD089
S11317E0C9F7F6CF462F4F70405D4A3318F0495D74
S11317F031FD4052419302D0A9F7EACFB4E0A69557
S11318009795879577956795BA95C9F70097610578
S1131810710508959B01AC010A2E069457954795CE
S113182037952795BA95C9F7620F731F841F951FC3
S10B1830A01D0895F894FFCFF8
S113183864456E7465722043617264004C55582087
S11318483A2025303464200032737420666C6F6F3C
S113185872202020202020202020202000337264A1
S113186820666C6F6F72202020202020202020000A
S11318786572726F720031737420466C6F6F7220D8
S1131888202020202020202020202020202000325A
S11318986E6420466C6F6F72202020202020202048
S11318A820202020200033726420466C6F6F722041
S11318B820202020202020202020202000504943C0
S11318C84320636F6D706C69616E74207769746806
S11318D82049534F2F4945432031343434332D3470
S11318E8005049434320636F6D706C69616E7420C6
S11318F8776974682049534F2F494543203138305C
S1131908393220284E464329004D49464152452044
S11319184D696E692C203332302062797465730006
S11319284D494641524520314B42004D49464152AA
S11319384520344B42004D494641524520556C746C
S113194872616C69676874206F7220556C74726177
S11319586C696768742043004D49464152452050DC
S11319686C7573004D4946415245204445534669B8
S11319787265004D494641524520544E50335858DB
S1131988580053414B20696E646963617465732020
S1131998554944206973206E6F7420636F6D706CB1
S11319A86574652E00556E6B6E6F776E2074797052
S11319B865004669726D7761726520566572736950
S11319C86F6E3A20307800203D2028636C6F6E6576
S11319D8290D0A00203D2076302E300D0A00203DC6
S11319E82076312E300D0A00203D2076322E300D1F
S11319F80A00203D20636F756E74657266656974AC
S1131A0820636869700D0A00203D2028756E6B6E8E
S1131A186F776E290D0A005741524E494E473A20B6
S1131A28436F6D6D756E69636174696F6E2066616D
S1131A38696C7572652C20697320746865204D463D
S1131A4852433532322070726F7065726C7920633C
S1131A586F6E6E65637465643F0D0A00436172645A
S1131A68205549443A002025303278004361726495
S1131A782053414B3A20003000253032780D0A00BB
S10F1A885049434320747970653A2000F3
S9030000FC
